:020000040800F2
:1000000000000220311E00085509000857090008A9
:10001000590900085B0900085D090008000000009C
:100020000000000000000000000000005F09000860
:100030006109000800000000630900086509000864
:10004000811E0008811E0008811E0008811E000814
:10005000811E0008811E0008811E0008811E000804
:10006000811E0008811E0008811E0008811E0008F4
:10007000811E0008811E0008811E0008811E0008E4
:10008000811E0008811E0008811E0008811E0008D4
:10009000811E0008811E0008811E0008811E0008C4
:1000A000811E0008811E0008811E0008811E0008B4
:1000B000811E0008811E0008811E0008811E0008A4
:1000C000811E0008811E0008811E0008811E000894
:1000D000811E0008811E0008811E0008811E000884
:1000E000811E0008811E0008811E0008811E000874
:1000F000811E0008811E0008811E0008811E000864
:10010000811E0008811E0008811E0008811E000853
:10011000811E0008811E0008811E0008811E000843
:10012000811E0008811E0008811E0008811E000833
:10013000811E00080000000000000000811E000871
:10014000811E0008811E0008811E0008811E000813
:10015000811E0008811E0008811E0008811E000803
:10016000811E0008811E0008811E0008811E0008F3
:10017000811E0008811E0008811E0008000000008A
:1001800000000000811E00080000000000000000C8
:10019000811E00080000000000000000811E000811
:1001A000000000000000000000000000811E0008A8
:1001B000811E0008811E0008811E0008811E0008A3
:0401C000811E000894
:1001D00010B5054C237833B9044B13B10448AFF381
:1001E00000800123237010BD70000020000000007B
:1001F0009C2F000808B5034B1BB103490348AFF31C
:10020000008008BD00000000740000209C2F000842
:1002100001F0FF01102A2BDB10F0070F08D010F8B7
:10022000013B013A8B422DD010F0070F42B3F6D1BB
:10023000F0B441EA012141EA014122F007047FF0D4
:1002400000070023F0E80256083C85EA010586EA2B
:10025000010685FA47F5A3FA87F586FA47F6A5FA67
:1002600087F68EB9EED1F0BC01F0FF0102F0070273
:1002700032B110F8013B013A83EA010313B1F8D11E
:100280000020704701387047002D06BF35460338FF
:10029000073815F0010F07D1013015F4807F02BF38
:1002A000013015F4C03F0130F0BC0138704700BF89
:1002B00053B94AB9002908BF00281CBF4FF0FF31CD
:1002C0004FF0FF3000F074B9ADF1080C6DE904CEC9
:1002D00000F006F8DDF804E0DDE9022304B0704721
:1002E0002DE9F047089D04468E46002B4DD18A42E9
:1002F000944669D9B2FA82F252B101FA02F3C2F11C
:10030000200120FA01F10CFA02FC41EA030E9440AC
:100310004FEA1C48210CBEFBF8F61FFA8CF708FBCD
:1003200016E341EA034306FB07F199420AD91CEBA5
:10033000030306F1FF3080F01F81994240F21C81D7
:10034000023E63445B1AA4B2B3FBF8F008FB10331F
:1003500044EA034400FB07F7A7420AD91CEB040454
:1003600000F1FF3380F00A81A74240F20781644424
:10037000023840EA0640E41B00261DB1D4400023A9
:10038000C5E900433146BDE8F0878B4209D9002D0D
:1003900000F0EF800026C5E9000130463146BDE897
:1003A000F087B3FA83F6002E4AD18B4202D3824201
:1003B00000F2F980841A61EB030301209E46002DB0
:1003C000E0D0C5E9004EDDE702B9FFDEB2FA82F205
:1003D000002A40F09280A1EB0C014FEA1C471FFA63
:1003E0008CFE0126200CB1FBF7F307FB131140EA4A
:1003F00001410EFB03F0884208D91CEB010103F117
:10040000FF3802D2884200F2CB804346091AA4B2D8
:10041000B1FBF7F007FB101144EA01440EFB00FEAC
:10042000A64508D91CEB040400F1FF3102D2A64511
:1004300000F2BB800846A4EB0E0440EA03409CE7B0
:10044000C6F12007B34022FA07FC4CEA030C20FA5D
:1004500007F401FA06F31C43F9404FEA1C4900FA7D
:1004600006F3B1FBF9F8200C1FFA8CFE09FB1811FA
:1004700040EA014108FB0EF0884202FA06F20BD96D
:100480001CEB010108F1FF3A80F08880884240F2BD
:100490008580A8F102086144091AA4B2B1FBF9F001
:1004A00009FB101144EA014100FB0EFE8E4508D9FC
:1004B0001CEB010100F1FF346CD28E456AD9023881
:1004C000614440EA0840A0FB0294A1EB0E01A14266
:1004D000C846A64656D353D05DB1B3EB080261EBD4
:1004E0000E0101FA07F722FA06F3F1401F43C5E9AE
:1004F000007100263146BDE8F087C2F12003D840E4
:100500000CFA02FC21FA03F3914001434FEA1C4725
:100510001FFA8CFEB3FBF7F007FB10360B0C43EA17
:10052000064300FB0EF69E4204FA02F408D91CEBC7
:10053000030300F1FF382FD29E422DD902386344C5
:100540009B1B89B2B3FBF7F607FB163341EA034165
:1005500006FB0EF38B4208D91CEB010106F1FF38B4
:1005600016D28B4214D9023E6144C91A46EA0046AB
:1005700038E72E46284605E70646E3E61846F8E63D
:100580004B45A9D2B9EB020864EB0C0E0138A3E786
:100590004646EAE7204694E74046D1E7D0467BE767
:1005A000023B614432E7304609E76444023842E7DF
:1005B000704700BFF0B58BB00024059406940794F3
:1005C0000894099401942D4B1A6B42F004021A63AB
:1005D0001A6B02F004020192019A02941A6B42F023
:1005E00080021A631A6B02F080020292029A03944C
:1005F0001A6B42F001021A631A6B02F001020392B5
:10060000039A04941A6B42F002021A631B6B03F004
:1006100002030493049B1A4E22460221304601F045
:1006200033F8184D01221021284601F02DF82246FA
:100630004FF48061284601F027F84FF400530593EA
:10064000114B0693079405A9304600F031FF0223B1
:100650000593012706970794089405A9304600F0F2
:1006600027FF4FF48263059306970794089405A922
:10067000284600F01DFF0BB0F0BD00BF003802405F
:1006800000080240000002400000211010B582B0B6
:100690008DF804008DF805100C4C00221021204626
:1006A00000F0F2FF012001F0AFF86423022201A95B
:1006B000074801F0C4F9012001F0A6F80122102139
:1006C000204600F0E1FF02B010BD00BF0000024074
:1006D0008C00002030B585B004460D4D002210215D
:1006E000284600F0D1FF64F07F048DF80C406423AD
:1006F0000093022302AA03A9064801F07CFA012212
:100700001021284600F0C0FF9DF8090005B030BD5B
:10071000000002408C00002010B52D20FFF7DAFF0A
:1007200084B22C20FFF7D6FF2402A4B214FA80F082
:1007300000B207EE900AF8EEE77A9FED020A27EE84
:10074000800A10BD295C0F3C08B5642001F05CF8FC
:100750000F20FFF7BFFF0146034801F0BFFB6420F5
:1007600001F052F808BD00BFB42F000810B51446C0
:100770000A2392B2024800F076FA204610BD00BF6C
:10078000E400002072B6FEE708B50A480A4B036091
:100790004FF4E133436000238360C36003610C22A4
:1007A00042618361C36100F02FFA00B908BDFFF711
:1007B000E9FF00BFE40000200044004008B50E48F7
:1007C0000E4B03604FF48273436000238360C36069
:1007D00002220261012242614FF4007282611822FA
:1007E000C2610362436283620A23C36201F0C8F8F4
:1007F00000B908BDFFF7C6FF8C00002000300140A3
:1008000000B595B03422002107A801F05FFB00235A
:100810000293039304930593069300931F4A116C6C
:1008200041F080511164126C02F080520092009AE3
:1008300001931B490A6822F4404242F480420A6054
:100840000A6802F440420192019A022207920121B1
:100850000A9110210B910D920E930F914FF4A873F2
:100860001093042311931292139207A800F0FEFB39
:1008700080B90F23029302210391002304934FF4C4
:1008800080520592069302A800F05AFA20B915B0DA
:100890005DF804FBFFF776FFFFF774FF00380240B6
:1008A0000070004010B52DED028B244B1B68002119
:1008B000986801F02BFB00F07BFFFFF7A1FFFFF72B
:1008C00079FEFFF761FFFFF779FF2020FFF702FFB6
:1008D00001461B4C204601F001FB0F212020FFF7B1
:1008E000D5FEFFF731FF2020FFF7F4FE014620463A
:1008F00001F0F4FA9FED138A1AE0FFF70DFFDFED28
:10090000127A20EE270A38EE008A012000F07CFFE0
:100910000134B4F57A7FF0DBF0EE007A38EE678AC6
:10092000FDEEC87A17EE903A19B2084801F0D6FAEF
:100930000221074800F0AEFE0024EAE70C00002088
:10094000C42F0008000000006F12833AD02F000867
:1009500000080240FEE7FEE7FEE7FEE7FEE770471D
:100960007047704708B500F03DFF08BD00B583B083
:10097000002100910C4B5A6C42F480425A645A6C2C
:1009800002F480420092009A01911A6C42F0805267
:100990001A641B6C03F080530193019B072000F045
:1009A00083FE03B05DF804FB0038024000B589B057
:1009B0000023039304930593069307930268154B52
:1009C0009A4202D009B05DF804FB0021019103F5C1
:1009D00084335A6C42F480525A645A6C02F4805246
:1009E0000192019A02911A6B42F001021A631B6B89
:1009F00003F001030293029BE02303930223049379
:100A0000032306930523079303A9034800F050FD31
:100A1000D8E700BF003001400000024000B589B0B7
:100A20000023039304930593069307930268154BE1
:100A30009A4202D009B05DF804FB0021019103F550
:100A4000FA331A6C42F400321A641A6C02F400325F
:100A50000192019A02911A6B42F001021A631B6B18
:100A600003F001030293029B0C23039302230493DC
:100A7000032306930723079303A9034800F018FDF7
:100A8000D8E700BF004400400000024038B50446EB
:100A90000268136923F44053C1680B4313618368F0
:100AA0000269134342691343C2691A430168CB6860
:100AB00023F4164323F00C031343CB6002685369FD
:100AC00023F4407381690B4353610368314A9342B5
:100AD00006D002F58062934202D000F0E7F901E00F
:100AE00000F0F4F9E369B3F5004F29D000210318B1
:100AF00049411B1841F10001C90041EA5371DB0073
:100B0000181863684FEA83024FEA937341F10001BA
:100B1000FFF7CEFB204DA5FB00325109642303FBF8
:100B200011031B013233A5FB03235B0903F0F00221
:100B300002EB011203F00F03216813448B6038BDF0
:100B40000023021843EB0301121841F10001C90010
:100B500041EA5271D200101841F100016268921806
:100B60005B41FFF7A5FB0C4DA5FB00325109642347
:100B700003FB1103DB003233A5FB03235B095A009F
:100B800002F4F87202EB011203F007032168134428
:100B90008B60D4E7001001401F85EB512DE9F8432D
:100BA00005460F4616469946DDF820802C682468D5
:100BB00037EA04030CBF4FF0010C4FF0000CB445B2
:100BC0001FD1B8F1FF3FF1D0B8F1000F05D000F010
:100BD00015FEA0EB09004045E8D92A68D36823F444
:100BE000D073D3602A68536923F001035361202333
:100BF00085F83D3085F83E30002385F83C300320F1
:100C000000E00020BDE8F88358B310B5044690F822
:100C10003D300BB3242384F83D302268D36823F49D
:100C20000053D3602046FFF731FF2268136923F495
:100C3000904313612268536923F02A0353612268A9
:100C4000D36843F40053D36000202064202384F849
:100C50003D3084F83E3010BD80F83C30FFF7DEFEBA
:100C6000D8E7012070472DE9F04182B01E4690F888
:100C70003D30DBB2202B54D104460D46904600296E
:100C800053D0002A53D090F83C30012B51D001238F
:100C900080F83C3000230364212380F83D3000F0CD
:100CA000ADFD0746A4F82480A4F82680A368B3F518
:100CB000805F05D04FF00008002384F83C3012E03C
:100CC000236913B14FF00008F6E7A8460025F3E7C3
:100CD00038F8023B2268C3F308035360E28C92B2F7
:100CE000013A92B2E284E38C9BB273B100963B4628
:100CF000002280212046FFF751FFE0B9002DE7D008
:100D000015F8012B23685A60E8E700963B4600225D
:100D100040212046FFF742FF78B9202384F83D3078
:100D200000E0022002B0BDE8F0810120FAE70120D6
:100D3000F8E70220F6E70320F4E70320F2E70000DB
:100D4000002800F09B8070B50D4604464F4B1B6891
:100D500003F00F038B4208D2CBB24C4A13701368D6
:100D600003F00F038B4240F08B80236813F0020FD7
:100D700017D013F0040F04D0454A936843F4E053AE
:100D80009360236813F0080F04D0414A936843F43A
:100D9000604393603E4A936823F0F003A1680B43DD
:100DA0009360236813F0010F32D06368012B21D0C8
:100DB0009A1E012A25D9364A126812F0020F61D014
:100DC00033498A6822F0030213438B6000F016FD5A
:100DD00006462F4B9B6803F00C036268B3EB820F4F
:100DE00016D000F00BFD801B41F288339842F0D9F9
:100DF000032042E0264A126812F4003FE0D10120AD
:100E00003BE0234A126812F0007FD9D1012034E080
:100E10001E4B1B6803F00F03AB4207D9EAB21B4B12
:100E20001A701B6803F00F03AB422DD1236813F037
:100E3000040F06D0164A936823F4E053E1680B438D
:100E40009360236813F0080F07D0114A936823F4C6
:100E50006043216943EAC103936000F047F80C4BFB
:100E60009B68C3F303130B4AD35CD8400A4B18604A
:100E70000A4B186800F076FC002070BD0120704716
:100E80000120FAE70120F8E70120F6E7003C0240E4
:100E900000380240D82F000808000020040000207D
:100EA000014B1868704700BF0800002008B5FFF725
:100EB000F7FF044B9B68C3F38223034AD35CD840FB
:100EC00008BD00BF00380240E82F000808B5FFF752
:100ED000E7FF044B9B68C3F34233034AD35CD8401B
:100EE00008BD00BF00380240E82F000808B55C4B81
:100EF0009B6803F00C03082B07D00C2B5BD0042B52
:100F000001D0584808BD5848FCE7554B5A6802F0D4
:100F10003F025B6813F4800F2AD0514B5968C1F32C
:100F2000881C4FEA4C11B1EB0C006EEB0E0E4FEA31
:100F30008E1343EA90638101091A63EB0E03DB0011
:100F400043EA5173C90011EB0C0C43F10003590241
:100F500000234FEA4C2041EADC51FFF7A9F9404B4E
:100F60005B68C3F3014301335B00B0FBF3F0C9E7F7
:100F70003B4B5968C1F3881C4FEA4C11B1EB0C0094
:100F80006EEB0E0E4FEA8E1343EA90638101091A4D
:100F900063EB0E03DB0043EA5173C90011EB0C0C49
:100FA00043F10003990200234FEA8C2041EA9C514F
:100FB000FFF77EF9D3E72A4B5A6802F03F025B68DD
:100FC00013F4800F28D0264B5968C1F3881C4FEAD0
:100FD0004C11B1EB0C006EEB0E0E4FEA8E1343EA90
:100FE00090638101091A63EB0E03DB0043EA51733E
:100FF000C90011EB0C0C43F10003590200234FEA26
:101000004C2041EADC51FFF753F9154B5B68C3F301
:101010000273B0FBF3F075E7114B5968C1F3881CFC
:101020004FEA4C11B1EB0C006EEB0E0E4FEA8E1333
:1010300043EA90638101091A63EB0E03DB0043EA84
:101040005173C90011EB0C0C43F10003990200230A
:101050004FEA8C2041EA9C51FFF72AF9D5E700BFFF
:10106000003802400024F40000127A00002800F04A
:10107000018270B582B00446036813F0010F41D0BD
:10108000994B9B6803F00C03042B32D0964B9B6862
:1010900003F00C03082B27D0934B9B6803F00C0341
:1010A0000C2B59D06368B3F5803F5BD0B3F5A02F0C
:1010B0005ED08D4B1A6822F480321A601A6822F4CE
:1010C00080221A606368002B5CD000F097FB054615
:1010D000854B1B6813F4003F14D100F08FFB401BBD
:1010E0006428F5D90320CCE17F4B5B6813F4800FB3
:1010F000D2D07D4B1B6813F4003F03D06368002BF4
:1011000000F0BA81236813F0020F60D0764B9B6821
:1011100013F00C0F4AD0744B9B6803F00C03082BA0
:101120003FD0714B9B6803F00C030C2B69D0E36834
:10113000002B75D06D4B01221A6000F05FFB054655
:10114000694B1B6813F0020F61D100F057FB401B85
:101150000228F5D9032094E1634B5B6813F4800FF8
:10116000A0D0C6E7604A136843F480331360A9E750
:101170005D4B1A6842F480221A601A6842F4803289
:101180001A609FE700F03AFB0546574B1B6813F4C3
:10119000003FB7D000F032FB401B6428F5D9032094
:1011A0006FE1514B5B6813F4800FBAD14E4B1B6853
:1011B00013F0020F03D0E368012B40F05F814A4A2D
:1011C000136823F0F803216943EAC103136023681D
:1011D00013F0080F49D06369002B33D0434B012231
:1011E000C3F8802E00F00AFB05463F4B5B6F13F0FF
:1011F000020F3AD100F002FB401B0228F5D9032070
:101200003FE1394B5B6813F4800F90D1CEE7364A4B
:10121000136823F0F803216943EAC1031360D6E79A
:10122000324B00221A6000F0E9FA05462E4B1B688B
:1012300013F0020FCBD000F0E1FA401B0228F5D9E1
:1012400003201EE1294B0022C3F8802E00F0D6FABD
:101250000546254B5B6F13F0020F06D000F0CEFA67
:10126000401B0228F5D903200BE1236813F0040F7B
:1012700076D01D4B1B6C13F0805F33D1002301939C
:10128000194B1A6C42F080521A641B6C03F08053A5
:101290000193019B0125164B1B6813F4807F29D015
:1012A000A368012B3AD0052B3ED00F4B1A6F22F0CA
:1012B00001021A671A6F22F004021A67A368002B52
:1012C0003CD000F09BFA0646074B1B6F13F0020F51
:1012D00045D100F093FA801B41F288339842F3D94C
:1012E0000320CEE00025D6E7003802400000474248
:1012F000007000406B4A136843F48073136000F081
:101300007DFA0646674B1B6813F4807FC8D100F056
:1013100075FA801B0228F5D90320B2E0624A136FE8
:1013200043F001031367C9E75F4B1A6F42F00402F1
:101330001A671A6F42F001021A67BFE700F05EFAFF
:101340000646594B1B6F13F0020F08D000F056FAF7
:10135000801B41F288339842F3D9032091E0EDB924
:10136000A369002B00F08C804F4A926802F00C02B7
:10137000082A54D0022B17D04C4B00221A6600F0DA
:101380003DFA0446484B1B6813F0007F45D000F03F
:1013900035FA001B0228F5D9032072E0424A136C8B
:1013A00023F080531364DBE7404B00221A6600F001
:1013B00025FA05463C4B1B6813F0007F06D000F071
:1013C0001DFA401B0228F5D903205AE0E369226A7E
:1013D0001343626A43EA8213A26A5208013A43EA5B
:1013E0000243E26A43EA0263226B43EA02732E4A33
:1013F00053602E4B01221A6600F000FA04462A4B75
:101400001B6813F0007F06D100F0F8F9001B0228DA
:10141000F5D9032035E0002033E0002031E0012B36
:1014200031D0214B5B6803F48001E26991422CD1F9
:1014300003F03F02216A8A4229D1616A47F6C072ED
:101440001A40B2EB811F24D103F44031A26A520842
:10145000013AB1EB024F1ED103F07062E16AB2EBC8
:10146000016F1AD103F0E043226BB3EB027F16D178
:10147000002006E001207047012002E0012000E08A
:10148000002002B070BD0120FBE70120F9E7012038
:10149000F7E70120F5E70120F3E70120F1E701205C
:1014A000EFE700BF007000400038024000004742F4
:1014B00000230F2B00F2DE8070B582B060E08568FB
:1014C0005E000324B44025EA0405CC68B4402C43F4
:1014D0008460456825EA02054C68C4F300129A400E
:1014E0002A4342605AE0DC08083450F8246003F0D4
:1014F000070295000F22AA4026EA020E0A69AA40B6
:1015000042EA0E0240F824205CE0062200E00022BD
:1015100002FA0EF22A430234574D45F82420574A66
:1015200014686FEA0C0224EA0C054E6816F4803F3A
:1015300001D04CEA0405514C2560646802EA0405B8
:101540004E6816F4003F01D04CEA04054B4C656030
:10155000A46802EA04054E6816F4801F01D04CEA24
:101560000405464CA560E46822404D6815F4001F50
:1015700001D04CEA0402414CE26001330F2B77D8D2
:1015800001229A400C6804EA020C32EA0404F4D105
:101590004C6804F00304013C012C90D94A6802F025
:1015A0000302032A09D0C4685D000322AA4024EA8A
:1015B00002048A68AA402243C2604A6802F0030219
:1015C000022A90D004684FEA430E032202FA0EF278
:1015D00024EA02044A6802F0030202FA0EF22243ED
:1015E00002604A6812F0805FC7D000220192244A4C
:1015F000546C44F480445464526C02F4804201926E
:10160000019A9C08A51C1C4A52F8255003F00302BD
:101610004FEA820E0F2202FA0EF225EA0205194A5B
:1016200090423FF474AF02F58062904216D002F50A
:101630008062904214D002F58062904212D002F58E
:101640008062904210D002F5806290420ED002F586
:10165000806290423FF459AF072259E7012257E7D1
:10166000022255E7032253E7042251E705224FE700
:1016700002B070BD704700BF00380140003C01401F
:1016800000380240000002400AB18161704709043D
:1016900081617047436901EA030221EA030141EADB
:1016A0000241816170470000074AD36823F4E06378
:1016B0001B041B0C000200F4E060034343F0BF6313
:1016C00043F40033D360704700ED00E000B5194BE0
:1016D000DB68C3F30223C3F1070CBCF1040F28BF7E
:1016E0004FF0040C03F1040EBEF1060F18D9033BB2
:1016F0004FF0FF3E0EFA0CFC21EA0C0199400EFA65
:1017000003F322EA0303194300280BDB0901C9B2E2
:1017100000F1604000F5614080F800135DF804FBC3
:101720000023E5E700F00F000901C9B2024B19548C
:10173000F4E700BF00ED00E014ED00E00138B0F187
:10174000807F0BD24FF0E0235861054AF02182F8E8
:1017500023100020986107221A617047012070470A
:1017600000ED00E010B504460E4B18784FF47A7384
:10177000B3FBF0F30C4A1068B0FBF3F0FFF7DEFFA9
:1017800068B90F2C01D901200AE0002221464FF050
:10179000FF30FFF79BFF054B1C60002000E001209D
:1017A00010BD00BF00000020080000200400002041
:1017B00008B50B4B1A6842F400721A601A6842F4BA
:1017C00080621A601A6842F480721A600320FFF780
:1017D0006BFF0020FFF7C6FFFFF7C8F8002008BD29
:1017E000003C0240034A1168034B1B780B44136012
:1017F000704700BF2801002000000020014B18683E
:10180000704700BF2801002038B50446FFF7F6FFF7
:101810000546B4F1FF3F02D0044B1B781C44FFF790
:10182000EDFF401BA042FAD338BD00BF00000020EE
:10183000034AD2F8883043F47003C2F88830704706
:1018400000ED00E02DE9F04782B0054688461746D6
:101850001E46FFF7D3FF0A9B1B1A03EB0609FFF78F
:10186000CDFF82462B4B1B68C3F3CB3309FB03F33D
:1018700001932B689C6838EA04030CBF4FF0010CFD
:101880004FF0000CBC4540D0B6F1FF3FF1D0FFF760
:10189000B5FFA0EB0A0048450AD2B9F1000F07D006
:1018A000019A02B14A46019B013B01939146E0E750
:1018B0002A68536823F0E00353606B68B3F5827FB6
:1018C0000BD0AB6AB3F5005F14D0012385F851301B
:1018D000002385F85030032018E0AB68B3F5004FC3
:1018E00002D0B3F5806FECD12A68136823F040036F
:1018F0001360E6E72A68136823F4005313602A682C
:10190000136843F400531360DFE7002002B0BDE822
:10191000F08700BF0800002010B584B00446164BC5
:101920001868164BA3FB0030400D4FF47A7303FB8D
:1019300000F003906368B3F5827F0BD0039BBBB1CB
:10194000039B013B039323689B6813F0800FF5D141
:1019500000200EE000920B46002280212046FFF777
:1019600071FF30B1636D43F020036365032000E035
:10197000002004B010BD00BF08000020819F5E164B
:1019800000285AD010B50446436A33B94368B3F50A
:10199000827F05D00023C36102E00023036143611D
:1019A0000023A36294F85130002B40D0022384F826
:1019B00051302268136823F040031360636803F416
:1019C0008273A26802F404421343E26802F40062E4
:1019D0001343226902F002021343626902F001021A
:1019E0001343A26902F400721343E26902F0380261
:1019F0001343226A02F080021343A26A02F40052E7
:101A0000216813430B60638B03F00403626A02F0E6
:101A10001002216813434B602268D36923F40063EA
:101A2000D36100206065012384F8513010BD84F833
:101A300050302046FEF7BAFFB8E7012070472DE985
:101A4000F04383B01D4690F85030012B00F0D18058
:101A5000044688469146012380F85030FFF7CEFEB9
:101A6000074694F85160F6B2012E40F0AF80B8F10D
:101A7000000F00F0AC80B9F1000F00F0A880032344
:101A800084F8513000236365C4F83080A4F83490A2
:101A9000A4F83690A363A387E38763642364A368F1
:101AA000B3F5004F1ED023681A6812F0400F03D11F
:101AB0001A6842F040021A60E368B3F5006F1CD068
:101AC000636813B1B9F1010F52D1226B2368127808
:101AD0001A73236B01332363E38E9BB2013B9BB2EA
:101AE000E38645E02268136823F040031360226810
:101AF000136843F480431360D5E7636813B1B9F109
:101B0000010F16D1226B23681288DA60236B02332F
:101B10002363E38E9BB2013B9BB2E38609E0FFF7B0
:101B20006DFEC01BA84202D3B5F1FF3F59D1002D75
:101B300059D0E38E9BB2002B33D023689A6812F001
:101B4000020FECD0226B1288DA60236B023323631E
:101B5000E38E9BB2013B9BB2E386EAE7FFF74EFEC2
:101B6000C01BA84202D3B5F1FF3F3ED1002D3ED0AD
:101B7000E38E9BB2ABB123689A6812F0020FEDD0EE
:101B8000226B12781A73236B01332363B4F836C0C7
:101B90001FFA8CFC0CF1FF3C1FFA8CFCA4F836C039
:101BA000E6E73A4629462046FFF7B6FE08B120236D
:101BB0006365A36833B901932368DA6801929B686F
:101BC0000193019B636D13B9002600E002260123F7
:101BD00084F85130002384F85030304603B0BDE81B
:101BE000F0830326F3E70326F1E70326EFE7032656
:101BF000EDE70226F1E72DE9F04383B01F460A9D89
:101C000090F85030012B00F0108104468846914630
:101C1000012380F85030FFF7F1FD064694F851306B
:101C2000DBB26268012B0AD0B2F5827F40F0E3801C
:101C3000A268002A40F0E980042B40F0E880B8F167
:101C4000000F00F0E680B9F1000F00F0E480002FF3
:101C500000F0E38094F85130DBB2042B02D005236E
:101C600084F8513000236365C4F83890E787A7876C
:101C7000C4F83080E786A7862364636423681A6803
:101C800012F0400F03D11A6842F040021A60E36874
:101C9000B3F5006F11D063680BB1012F0BD1226B2C
:101CA000236812781A73236B01332363E38E9BB28C
:101CB000013B9BB2E38601276BE063680BB1012F08
:101CC0000BD1226B23681288DA60236B0233236303
:101CD000E38E9BB2013B9BB2E38601271CE02368A5
:101CE0009A6812F0010F0ED0E28F92B25AB1DA6800
:101CF000A36B1A80A36B0233A363E38F9BB2013BF8
:101D00009BB2E3870127FFF779FD801BA84203D32D
:101D1000B5F1FF3F40F08380E38E9BB21BB9E38FA8
:101D20009BB2002B53D023689A6812F0020FD6D0D2
:101D3000E28E92B2002AD2D0002FD0D0226B12882D
:101D4000DA60236B02332363E38E9BB2013B9BB2C9
:101D5000E3860027C3E723689A6812F0010F0ED0CC
:101D6000E28F92B25AB1DA68A36B1A70A36B013397
:101D7000A363E38F9BB2013B9BB2E3870127FFF78D
:101D80003DFD831BAB4202D3B5F1FF3F49D1002D8E
:101D900049D0E38E9BB213B9E38F9BB2BBB12368EA
:101DA0009A6812F0020FD6D0E28E92B2002AD2D0F8
:101DB000002FD0D0226B12781A73236B0133236368
:101DC000E38E9BB2013B9BB2E3860027C3E732461A
:101DD00029462046FFF7A0FD48B9A36863B90193DF
:101DE0002368DA6801929B680193019B04E0202339
:101DF0006365012000E00220012384F851300023B4
:101E000084F8503003B0BDE8F0830220F4E70220EC
:101E1000F2E70120F0E70120EEE70120ECE70320E4
:101E2000EAE70320E8E70320E6E70220EAE700000C
:101E3000DFF834D00D480E490E4A002302E0D45892
:101E4000C4500433C4188C42F9D30B4A0B4C002302
:101E500001E013600432A242FBD3FFF7E9FC00F07B
:101E600011F8FEF71FFD704700000220000000205F
:101E70007000002098300008700000204001002011
:101E8000FEE7000070B50D4D0D4C641BA41000263C
:101E9000A64209D10B4D0C4C01F080F8641BA41034
:101EA0000026A64205D170BD55F8043B984701367F
:101EB000EEE755F8043B98470136F2E7903000080A
:101EC0009030000890300008943000080244034627
:101ED000934200D1704703F8011BF9E70FB40A4B96
:101EE00013B51C6824B1A36913B9204600F0F6F9B4
:101EF00005AB049AA1680193204600F0CDFB02B027
:101F0000BDE8104004B070470C00002000294FF4D9
:101F100080630CBF0222002200F000B82DE9F743D5
:101F20001D465D4B1F6804460E46904627B1BB69AF
:101F300013B9384600F0D2F9584B9C4267D17C68FF
:101F4000B8F1020F06D0B8F1010F00F29F80002D0A
:101F5000C0F29C80636EDB0705D4A389980502D488
:101F6000A06D00F059FA2146384600F023F9616B64
:101F700041B104F14403994202D0384600F0BCFA62
:101F8000002363630023A3616360A389190603D55B
:101F90002169384600F0B0FAA38923F44A6323F09C
:101FA0000303B8F1020FA3816CD001AB6A4621464E
:101FB000384600F033FAA3891843A081002D30D1B0
:101FC000009D284600F090FA0646002855D1DDF81D
:101FD0000090A9454AD14FF0FF350022A26004F1DC
:101FE0004702226022610122B4F90C306261626E04
:101FF00043F00203D207A38105D413F4007F02D17A
:10200000A06D00F00AFA284603B0BDE8F083244B27
:102010009C4201D1BC6893E7224B9C4208BFFC68FC
:102020008EE7002ECDD0BB6913B9384600F056F9C3
:10203000B8F1010F08BFA389266004BF43F0010374
:10204000A381A28912F00803C4E904651CD0D30758
:1020500041BF00236D42A360A56158BFA560656EB6
:1020600015F0010515D112F4007FC8E7484600F0CD
:102070003BFA06460028AED04D46A38943F08003C4
:10208000A381D0E70025A8E7A360E8E74FF0FF357C
:10209000B9E70025B7E700BF0C00002014300008A6
:1020A00034300008F42F00088A892DE9F0410546F4
:1020B00010070C4658D44B68002B05DC0B6C002B2A
:1020C00002DC0020BDE8F081E66A002EF9D0002392
:1020D00012F480522F682B6032D0606DA3895A07AA
:1020E00005D56368C01A636B0BB1236CC01A00235B
:1020F0000246E66A216A2846B047431CA38906D1F6
:1021000029681D292CD82A4ACA40D60728D500227A
:102110006260D9042269226004D5421C01D12B6877
:1021200003B96065616B2F600029CAD004F14403D4
:10213000994202D0284600F0DFF900206063C1E731
:10214000216A01232846B047411CC7D12B68002BC8
:10215000C4D01D2B01D0162B01D12F60B1E7A3896C
:1021600043F04003A381ADE70F69002FA9D0930787
:102170000E6808BF4B690F6018BF0023A6EB070865
:102180008B60B8F1000F9CDD216AA66A43463A468F
:102190002846B047002806DCA38943F04003A3810A
:1021A0004FF0FF308EE70744A8EB0008E9E700BFD7
:1021B0000100402038B50B6905460C4613B90025CF
:1021C000284638BD18B183690BB900F087F8144B65
:1021D0009C421BD16C68B4F90C30002BEFD0626EBE
:1021E000D00704D4990502D4A06D00F015F9284653
:1021F0002146FFF759FF636EDA070546E0D4A3894D
:102200009B05DDD4A06D00F008F9D9E7054B9C4291
:1022100001D1AC68DFE7044B9C4208BFEC68DAE709
:102220001430000834300008F42F0008002310B5E3
:102230000446C0E90033C0E904338360818143660A
:10224000C2818361194608225C30FFF73FFE054BCF
:102250006362054BA362054BE362054B2462236373
:1022600010BD00BF412C0008632C00089B2C000807
:10227000BF2C0008014900F0AFB800BFB52100082D
:1022800070B568224D1E55430E4605F1740100F0ED
:102290007FF9044640B10021C0E900160C30A0606F
:1022A00005F16802FFF712FE204670BD014800F0FC
:1022B000B3B800BF2D010020014800F0AEB800BF48
:1022C0002D010020014800F0A7B800BF2E0100201A
:1022D000014800F0A2B800BF2E01002010B504464E
:1022E000FFF7F0FFA3691BB1BDE81040FFF7F0BF97
:1022F000C4E912332365134B134A1B68A262A3423D
:1023000004BF0123A361204600F020F8606020464E
:1023100000F01CF8A060204600F018F80022E060F1
:1023200004216068FFF782FFA06801220921FFF7FE
:102330007DFFE06802221221FFF778FF0123A361ED
:10234000D2E700BFF02F000875220008F8B5074655
:10235000FFF7ACFF1E4B1E68B36913B93046FFF799
:10236000BDFF4836D6E90134013B03D533680BB3D2
:102370003668F7E7B4F90C50D5B9164BE36004F1B1
:102380005800656600F047F8FFF796FFC4E901556D
:10239000C4E904552560A5610822294604F15C00C2
:1023A000FFF794FDC4E90D55C4E912552046F8BD68
:1023B0006834D9E704213846FFF762FF04463060ED
:1023C0000028D5D1FFF778FF0C233B60EEE700BF74
:1023D000F02F00080100FFFF2DE9F843064688466C
:1023E00000F148040027D4E90195B9F1010905D5A8
:1023F0002468002CF7D13846BDE8F883AB89012B5F
:1024000007D9B5F90E30013303D029463046C0470D
:1024100007436835E9E770477047704770B50E4667
:10242000B1F90E10002996B014461D4608DAB6F927
:102430000C3000222A601A0610D44FF480630EE09C
:102440006A4600F023FD0028F1DB019A02F4704295
:10245000A2F500535A425A412A60EEE74023002079
:10246000236016B070BD00008B8973B59D070646CA
:102470000C4607D504F14703236023610123636100
:1024800002B070BD01AB6A46FFF7C8FF0099054670
:10249000304600F07DF848B9B4F90C309A05EFD415
:1024A00023F0030343F00203A381E3E70D4BB36280
:1024B000A389206043F08003A381009B6361019B9B
:1024C00020615BB1B4F90E10304600F0F1FC28B188
:1024D000A38923F0030343F00103A381A0890543EB
:1024E000A581CDE775220008024B0146186800F06F
:1024F0004FB800BF0C00002037B5002944D051F878
:10250000043C0190002BA1F10404B8BFE41800F0D2
:10251000F1FC1E4A0198136833B96360146003B07C
:10252000BDE8304000F0ECBCA34208D92568611931
:102530008B4201BF19685B6849192160EDE71A46B3
:102540005B680BB1A342FAD911685518A5420BD1AB
:10255000246821445418A3421160E0D11C685B68D0
:10256000536021441160DAE702D90C230360D6E7F7
:10257000256861198B4204BF19685B68636004BFFA
:10258000491921605460CAE703B030BD3001002012
:10259000F8B5CD1C25F0030508350C2D38BF0C25EA
:1025A000002D064601DBA94203D90C23336000202D
:1025B000F8BD00F09FFC21490A6814469CB9204FE1
:1025C0003B6823B92146304600F02AFB3860294693
:1025D000304600F025FB431C23D10C2333603046EA
:1025E00000F08EFCE3E723685B1B17D40B2B03D9A9
:1025F00023601C44256004E06368A2420CBF0B60AA
:102600005360304600F07CFC04F10B00231D20F0E9
:102610000700C21ACCD01B1AA350C9E7224664682F
:10262000CCE7C41C24F00304A042E3D0211A3046B6
:1026300000F0F6FA0130DDD1CFE700BF3001002015
:10264000340100209368013B002B10B4936008DA3A
:102650009469A34201DB0A2903D15DF8044B00F021
:1026600033BB1368581C1060197008465DF8044BA2
:102670007047F8B506460F461446D518AC4201D14E
:10268000002007E014F8011B3A463046FFF7DAFF56
:10269000431CF3D1F8BD00002DE9F04F0D469DB06D
:1026A00014469846064618B183690BB9FFF716FE23
:1026B000894B9D421BD175686B6ED90705D4AB89D8
:1026C0009A0502D4A86DFFF7A7FEAB891B0701D5B9
:1026D0002B69EBB92946304600F05AFBC0B16B6E4E
:1026E000DC070ED54FF0FF301DB0BDE8F08F7B4BFF
:1026F0009D4201D1B568DFE7794B9D4208BFF5687F
:10270000DAE7AB899805EDD4A86DFFF786FEE9E717
:102710000023099320238DF82930CDF80C80302335
:10272000DFF8C0818DF82A304FF0010923469A4620
:1027300013F8012B0AB1252AF9D1BAEB040B0BD0FF
:102740005B46224629463046FFF793FF013000F0F2
:10275000AA80099A5A4409929AF80030002B00F096
:10276000A28000234FF0FF32CDE905230AF1010AD0
:10277000049307938DF853301A935446052214F8A6
:10278000011B5848FDF744FD049AD8B9D10644BF4F
:1027900020238DF85330130744BF2B238DF853307B
:1027A0009AF800302A2B15D0079A544600204FF093
:1027B0000A0C214611F8013B303B092B4ED9B0B130
:1027C000079214E0A0EB080309FA03F31343049300
:1027D000A246D2E7039B191D1B680391002BBBBFC8
:1027E0005B4242F0020207930793B8BF049223783A
:1027F0002E2B0CD163782A2B35D1039B1A1D1B6815
:102800000392002BB8BF4FF0FF3302340593DFF87B
:10281000E4A0217803225046FDF7FAFC40B14023A2
:10282000A0EB0A0003FA00F0049B03430134049375
:1028300014F8011B2C488DF828100622FDF7E8FC3F
:1028400000283FD0294B1BBB039B073323F0070312
:1028500008330393099B3B44099367E70CFB02325F
:102860000C460120A5E700230134059319464FF0DB
:102870000A0C204610F8012B303A092A03D9002B04
:10288000C5D00591C3E70CFB012104460123F0E705
:1028900003AB00932A46164B04A93046AFF30080E1
:1028A0000746781CD6D16B6ED90705D4AB899A053B
:1028B00002D4A86DFFF7B1FDAB895B063FF512AFFF
:1028C000099811E703AB00932A46094B04A9304647
:1028D00000F080F8E4E700BF14300008343000084E
:1028E000F42F0008543000085E300008000000009B
:1028F000732600085A3000082DE9F047164699461D
:102900008A680B69DDF820809342B8BF13463360B4
:1029100091F8432007460C460AB10133336023681F
:10292000990642BF336802333360256815F0060507
:1029300006D104F1190AE36832689B1AAB4226DC1F
:1029400094F84320131E226818BF012392062BD44B
:1029500004F1430249463846C04701301ED023687F
:10296000E568326803F00603042B08BFAD1AA368BC
:1029700022690CBF25EAE57500259342C4BF9B1A66
:10298000ED1800261A34B5421AD1002008E00123C0
:10299000524649463846C047013003D14FF0FF3018
:1029A000BDE8F0870135C6E7E1185A1C302081F8F0
:1029B0004300224494F8451082F843100233C7E7DD
:1029C0000123224649463846C0470130E6D0013649
:1029D000D9E700002DE9FF470F7E0C9D782F914627
:1029E00080460C469A4601F1430207D8622F0AD866
:1029F000002F00F0D880582F00F0A38004F142058A
:102A000084F842703AE0A7F16303152BF6D801A1D0
:102A100051F823F06D2A0008812A0008FD290008DA
:102A2000FD290008FD290008FD290008812A000869
:102A3000FD290008FD290008FD290008FD290008DE
:102A40008D2B0008B12A00086F2B0008FD29000813
:102A5000FD290008AF2B0008FD290008B12A000855
:102A6000FD290008FD290008772B00082B681A1D96
:102A70001B682A6004F1420584F842300123A3E078
:102A800020682968060601F104030AD50E682B6048
:102A9000002E03DA2D23764284F843305E480A2361
:102AA00019E00E682B6010F0400F18BF36B2EFE748
:102AB0002B682068191D2960010601D51E6802E0F7
:102AC0004606FBD51E8854486F2F0CBF08230A23E7
:102AD000002184F843106568A560002DA2BF21681D
:102AE00021F0040121600EB9002D4DD01546B6FB32
:102AF000F3F103FB1167C75D05F8017D3746BB4263
:102B00000E46F4D9082B0BD12368DE0708D52369BC
:102B100061689942DEBF302305F8013C05F1FF35BD
:102B2000521B2261CDF800A04B4603AA2146404625
:102B3000FFF7E2FE01304CD14FF0FF3004B0BDE8AA
:102B4000F087354881F845702968236851F8046B8F
:102B500029601D0614D5DF0744BF43F0200323601E
:102B60001EB9236823F0200323601023B0E72368F5
:102B700043F0200323607823284884F84530E3E7B6
:102B8000590648BFB6B2E6E71546BBE72B6826688C
:102B90006169181D286035061B6801D5196002E0BF
:102BA0007006FBD51980002323611546BAE72B6810
:102BB0001A1D2A601D68626800212846FDF728FB5F
:102BC00008B1401B606063682361002384F84330D0
:102BD000A8E723692A4649464046D0470130ABD092
:102BE00023689B0713D4E068039B9842B8BF18463C
:102BF000A4E70123324649464046D04701309BD0E6
:102C00000135E36803995B1AAB42F2DCEBE7002580
:102C100004F11906F5E700BF6530000876300008BA
:102C200038B5064D0023044608462B6000F0A8F98D
:102C3000431C02D12B6803B1236038BD380100204A
:102C400010B50C46B1F90E1000F060F90028ABBFCA
:102C5000636DA3891B1823F48053ACBF6365A38104
:102C600010BD2DE9F0411F468B89DB0505460C465A
:102C7000164605D5B1F90E100223002200F028F9FE
:102C8000A389B4F90E1023F48053A38132463B4646
:102C90002846BDE8F04100F069B810B50C46B1F91E
:102CA0000E1000F015F9431CA38915BF606523F4CD
:102CB000805343F48053A38118BFA38110BDB1F9A1
:102CC0000E1000F0D3B80000F8B50E4614460546C5
:102CD00018B183690BB9FFF701FB214B9C422BD143
:102CE0006C68A369A360A3891A072FD523696BB306
:102CF00023692068C01A6369F6B28342374604DC50
:102D000021462846FFF756FA30BBA368013BA36073
:102D100023685A1C22601E7063690130834204D00C
:102D2000A389DB0706D50A2E04D121462846FFF7E2
:102D300041FA88B93846F8BD0A4B9C4201D1AC68CB
:102D4000CFE7094B9C4208BFEC68CAE721462846FA
:102D500000F01EF80028CBD04FF0FF37EAE700BFA5
:102D60001430000834300008F42F000838B5074D3F
:102D700004460846114600222A601A46FDF7F6FC72
:102D8000431C02D12B6803B1236038BD38010020F9
:102D9000324B70B51D6806460C4625B1AB6913B9B8
:102DA0002846FFF79BFA2E4B9C420FD16C68A389F3
:102DB000B4F90C2019072CD4DD0611D40923336093
:102DC00042F04003A3814FF0FF303EE0254B9C4290
:102DD00001D1AC68EBE7244B9C4208BFEC68E6E706
:102DE000580712D5616B41B104F14403994202D0F6
:102DF0003046FFF781FB00236363A38923F024039C
:102E0000A3810023636023692360A38943F008033F
:102E1000A38123694BB9A38903F42073B3F5007F21
:102E200003D021463046FFF71FFBA089B4F90C20E0
:102E300010F001030AD00023A36063695B42A36121
:102E4000236943B910F08000BAD170BD810758BF23
:102E50006369A360F4E70020F7E700BF0C000020DF
:102E60001430000834300008F42F000838B5064D3F
:102E70000023044608462B6000F05AF8431C02D198
:102E80002B6803B1236038BD3801002038B5074DE9
:102E900000230446084611462B6000F051F8431CFD
:102EA00002D12B6803B1236038BD00BF3801002078
:102EB00038B5064D0023044608462B6000F048F85C
:102EC000431C02D12B6803B1236038BD38010020B8
:102ED00038B5074D04460846114600222A601A46B6
:102EE00000F03EF8431C02D12B6803B1236038BDCB
:102EF000380100200148FFF78FBA00BF2C010020E5
:102F00000148FFF78ABA00BF2C01002038B5074DF1
:102F100004460846114600222A601A4600F028F8A6
:102F2000431C02D12B6803B1236038BD3801002057
:102F3000024B58221A604FF0FF30704738010020D2
:102F4000024B58221A604FF0FF30704738010020C2
:102F5000024B58221A600020704700BF3801002041
:102F6000024B58221A604FF0FF30704738010020A2
:102F7000024B58221A604FF0FF3070473801002092
:102F8000044A05491368002B08BF0B46184410601B
:102F9000184670473C01002040010020F8B500BFF2
:102FA000F8BC08BC9E467047F8B500BFF8BC08BC2A
:042FB0009E46704782
:102FB40057484F5F414D5F49203D2025640D0A006D
:102FC400307832303D25640D0A00000025640D0A76
:102FD40000000000000000000000000001020304E3
:102FE4000607080900000000010203041000002085
:102FF40000000000000000000000000000000000CD
:1030040000000000000000000000000000000000BC
:1030140000000000000000000000000000000000AC
:10302400000000000000000000000000000000009C
:10303400000000000000000000000000000000008C
:10304400000000000000000000000000000000007C
:10305400232D302B2000686C4C006566674546477D
:103064000030313233343536373839414243444500
:10307400460030313233343536373839616263646F
:04308400656600007D
:0830880058D2FF7F0100000097
:04309000F50100083E
:04309400D10100085E
:1030980001000000100000000024F40010000020CF
:1030A800000000001430000834300008F42F000835
:1030B8000000000000000000000000000000000008
:1030C80000000000000000000000000000000000F8
:1030D80000000000000000000000000000000000E8
:1030E80000000000000000000000000000000000D8
:1030F80000000000000000000000000000000000C8
:0400000508001E31A0
:00000001FF
